{
  "contractName": "Migrations",
  "abi": [
    {
      "inputs": [],
      "stateMutability": "nonpayable",
      "type": "constructor"
    },
    {
      "inputs": [],
      "name": "lastTrasaction",
      "outputs": [
        {
          "internalType": "uint256",
          "name": "",
          "type": "uint256"
        }
      ],
      "stateMutability": "view",
      "type": "function",
      "constant": true
    },
    {
      "inputs": [],
      "name": "owner",
      "outputs": [
        {
          "internalType": "address",
          "name": "",
          "type": "address"
        }
      ],
      "stateMutability": "view",
      "type": "function",
      "constant": true
    },
    {
      "inputs": [
        {
          "internalType": "uint256",
          "name": "completed",
          "type": "uint256"
        }
      ],
      "name": "setCompleted",
      "outputs": [],
      "stateMutability": "nonpayable",
      "type": "function"
    },
    {
      "inputs": [
        {
          "internalType": "address",
          "name": "newaddress",
          "type": "address"
        }
      ],
      "name": "upgrade",
      "outputs": [],
      "stateMutability": "nonpayable",
      "type": "function"
    }
  ],
  "bytecode": "0x608060405234801561001057600080fd5b50336000806101000a81548173ffffffffffffffffffffffffffffffffffffffff021916908373ffffffffffffffffffffffffffffffffffffffff160217905550610341806100606000396000f3fe608060405234801561001057600080fd5b506004361061004c5760003560e01c80630900f010146100515780638da5cb5b1461006d578063fdacd5761461008b578063fe59224b146100a7575b600080fd5b61006b60048036038101906100669190610227565b6100c5565b005b61007561013b565b6040516100829190610263565b60405180910390f35b6100a560048036038101906100a091906102b4565b61015f565b005b6100af6101be565b6040516100bc91906102f0565b60405180910390f35b60008190508073ffffffffffffffffffffffffffffffffffffffff1663fdacd5766001546040518263ffffffff1660e01b815260040161010591906102f0565b600060405180830381600087803b15801561011f57600080fd5b505af1158015610133573d6000803e3d6000fd5b505050505050565b60008054906101000a900473ffffffffffffffffffffffffffffffffffffffff1681565b3373ffffffffffffffffffffffffffffffffffffffff1660008054906101000a900473ffffffffffffffffffffffffffffffffffffffff1673ffffffffffffffffffffffffffffffffffffffff1614156101bb57806001819055505b50565b60015481565b600080fd5b600073ffffffffffffffffffffffffffffffffffffffff82169050919050565b60006101f4826101c9565b9050919050565b610204816101e9565b811461020f57600080fd5b50565b600081359050610221816101fb565b92915050565b60006020828403121561023d5761023c6101c4565b5b600061024b84828501610212565b91505092915050565b61025d816101e9565b82525050565b60006020820190506102786000830184610254565b92915050565b6000819050919050565b6102918161027e565b811461029c57600080fd5b50565b6000813590506102ae81610288565b92915050565b6000602082840312156102ca576102c96101c4565b5b60006102d88482850161029f565b91505092915050565b6102ea8161027e565b82525050565b600060208201905061030560008301846102e1565b9291505056fea26469706673582212203ed1bbd542aca2d032d393a66919414d685f301dd29450b2e69e41da5e1789e264736f6c634300080c0033",
  "immutableReferences": {},
  "source": "pragma solidity ^0.8.0;\r\n\r\ncontract Migrations{\r\naddress public owner;\r\nuint public lastTrasaction;\r\n\r\nconstructor() {\r\n    owner=msg.sender;\r\n}\r\nmodifier restricted(){\r\n    if(owner==msg.sender)_;\r\n}\r\nfunction setCompleted(uint completed)public restricted{\r\n    lastTrasaction=completed;\r\n}\r\nfunction upgrade(address newaddress) public{\r\n    Migrations upgraded=Migrations(newaddress);\r\n    upgraded.setCompleted(lastTrasaction);\r\n}\r\n\r\n}",
  "sourcePath": "E:\\Learn\\Block-chain with solidity\\FirstSmartContract\\defi-staking-app-starter\\defi-staking-app-starter\\src\\contrasts\\Migrations.sol",
  "compiler": {
    "name": "solc",
    "version": "0.8.12+commit.f00d7308.Emscripten.clang"
  },
  "schemaVersion": "3.4.4",
  "updatedAt": "2022-03-04T19:35:09.667Z",
  "networkType": "ethereum",
  "devdoc": {
    "kind": "dev",
    "methods": {},
    "version": 1
  },
  "userdoc": {
    "kind": "user",
    "methods": {},
    "version": 1
  }
}