{
  "contractName": "Tether",
  "abi": [
    {
      "inputs": [],
      "stateMutability": "nonpayable",
      "type": "constructor"
    },
    {
      "anonymous": false,
      "inputs": [
        {
          "indexed": true,
          "internalType": "address",
          "name": "from",
          "type": "address"
        },
        {
          "indexed": true,
          "internalType": "address",
          "name": "to",
          "type": "address"
        },
        {
          "indexed": false,
          "internalType": "uint256",
          "name": "value",
          "type": "uint256"
        }
      ],
      "name": "TransferEVENT",
      "type": "event"
    },
    {
      "inputs": [
        {
          "internalType": "address",
          "name": "",
          "type": "address"
        },
        {
          "internalType": "address",
          "name": "",
          "type": "address"
        }
      ],
      "name": "allowances",
      "outputs": [
        {
          "internalType": "uint256",
          "name": "",
          "type": "uint256"
        }
      ],
      "stateMutability": "view",
      "type": "function"
    },
    {
      "inputs": [
        {
          "internalType": "address",
          "name": "",
          "type": "address"
        }
      ],
      "name": "balances",
      "outputs": [
        {
          "internalType": "uint256",
          "name": "",
          "type": "uint256"
        }
      ],
      "stateMutability": "view",
      "type": "function"
    },
    {
      "inputs": [],
      "name": "decimal",
      "outputs": [
        {
          "internalType": "uint8",
          "name": "",
          "type": "uint8"
        }
      ],
      "stateMutability": "view",
      "type": "function"
    },
    {
      "inputs": [],
      "name": "name",
      "outputs": [
        {
          "internalType": "string",
          "name": "",
          "type": "string"
        }
      ],
      "stateMutability": "view",
      "type": "function"
    },
    {
      "inputs": [],
      "name": "symbol",
      "outputs": [
        {
          "internalType": "string",
          "name": "",
          "type": "string"
        }
      ],
      "stateMutability": "view",
      "type": "function"
    },
    {
      "inputs": [],
      "name": "totalSupply",
      "outputs": [
        {
          "internalType": "uint256",
          "name": "",
          "type": "uint256"
        }
      ],
      "stateMutability": "view",
      "type": "function"
    },
    {
      "inputs": [
        {
          "internalType": "address",
          "name": "_to",
          "type": "address"
        },
        {
          "internalType": "uint256",
          "name": "value",
          "type": "uint256"
        }
      ],
      "name": "Transfer",
      "outputs": [],
      "stateMutability": "nonpayable",
      "type": "function"
    },
    {
      "inputs": [
        {
          "internalType": "address",
          "name": "_spender",
          "type": "address"
        },
        {
          "internalType": "uint256",
          "name": "_value",
          "type": "uint256"
        }
      ],
      "name": "allowance",
      "outputs": [],
      "stateMutability": "nonpayable",
      "type": "function"
    },
    {
      "inputs": [
        {
          "internalType": "address",
          "name": "_spender",
          "type": "address"
        }
      ],
      "name": "getAllowance",
      "outputs": [
        {
          "internalType": "uint256",
          "name": "",
          "type": "uint256"
        }
      ],
      "stateMutability": "view",
      "type": "function"
    },
    {
      "inputs": [
        {
          "internalType": "address",
          "name": "_from",
          "type": "address"
        },
        {
          "internalType": "address",
          "name": "_to",
          "type": "address"
        },
        {
          "internalType": "uint256",
          "name": "value",
          "type": "uint256"
        }
      ],
      "name": "TransferFrom",
      "outputs": [],
      "stateMutability": "nonpayable",
      "type": "function"
    },
    {
      "inputs": [
        {
          "internalType": "address",
          "name": "_owner",
          "type": "address"
        }
      ],
      "name": "balanceOf",
      "outputs": [
        {
          "internalType": "uint256",
          "name": "",
          "type": "uint256"
        }
      ],
      "stateMutability": "view",
      "type": "function"
    }
  ],
  "bytecode": "0x60806040526040518060400160405280600681526020017f5465746865720000000000000000000000000000000000000000000000000000815250600090805190602001906200005192919062000122565b506040518060400160405280600481526020017f5553445400000000000000000000000000000000000000000000000000000000815250600190805190602001906200009f92919062000122565b50670de0b6b3a76400006002556012600360006101000a81548160ff021916908360ff160217905550348015620000d557600080fd5b50600254600460003373ffffffffffffffffffffffffffffffffffffffff1673ffffffffffffffffffffffffffffffffffffffff1681526020019081526020016000208190555062000237565b828054620001309062000201565b90600052602060002090601f016020900481019282620001545760008555620001a0565b82601f106200016f57805160ff1916838001178555620001a0565b82800160010185558215620001a0579182015b828111156200019f57825182559160200191906001019062000182565b5b509050620001af9190620001b3565b5090565b5b80821115620001ce576000816000905550600101620001b4565b5090565b7f4e487b7100000000000000000000000000000000000000000000000000000000600052602260045260246000fd5b600060028204905060018216806200021a57607f821691505b60208210811415620002315762000230620001d2565b5b50919050565b610ce480620002476000396000f3fe608060405234801561001057600080fd5b50600436106100a95760003560e01c806370a082311161007157806370a082311461016657806376809ce31461019657806395d89b41146101b4578063c0d84ce5146101d2578063ddc6a171146101ee578063eb5a662e1461020a576100a9565b806306fdde03146100ae57806318160ddd146100cc57806327e235e3146100ea57806355b6ed5c1461011a57806369ca02dd1461014a575b600080fd5b6100b661023a565b6040516100c39190610978565b60405180910390f35b6100d46102c8565b6040516100e191906109b3565b60405180910390f35b61010460048036038101906100ff9190610a31565b6102ce565b60405161011191906109b3565b60405180910390f35b610134600480360381019061012f9190610a5e565b6102e6565b60405161014191906109b3565b60405180910390f35b610164600480360381019061015f9190610aca565b61030b565b005b610180600480360381019061017b9190610a31565b61046c565b60405161018d91906109b3565b60405180910390f35b61019e6104b5565b6040516101ab9190610b26565b60405180910390f35b6101bc6104c8565b6040516101c99190610978565b60405180910390f35b6101ec60048036038101906101e79190610b41565b610556565b005b61020860048036038101906102039190610aca565b6107d4565b005b610224600480360381019061021f9190610a31565b610859565b60405161023191906109b3565b60405180910390f35b6000805461024790610bc3565b80601f016020809104026020016040519081016040528092919081815260200182805461027390610bc3565b80156102c05780601f10610295576101008083540402835291602001916102c0565b820191906000526020600020905b8154815290600101906020018083116102a357829003601f168201915b505050505081565b60025481565b60046020528060005260406000206000915090505481565b6005602052816000526040600020602052806000526040600020600091509150505481565b80600460003373ffffffffffffffffffffffffffffffffffffffff1673ffffffffffffffffffffffffffffffffffffffff16815260200190815260200160002054101561035757600080fd5b80600460003373ffffffffffffffffffffffffffffffffffffffff1673ffffffffffffffffffffffffffffffffffffffff16815260200190815260200160002060008282546103a69190610c24565b9250508190555080600460008473ffffffffffffffffffffffffffffffffffffffff1673ffffffffffffffffffffffffffffffffffffffff16815260200190815260200160002060008282546103fc9190610c58565b925050819055508173ffffffffffffffffffffffffffffffffffffffff163373ffffffffffffffffffffffffffffffffffffffff167fcc5132f30f9d53fd784309407d47ac5de8b37977eb58ec9dc663a624f3fe72938360405161046091906109b3565b60405180910390a35050565b6000600460008373ffffffffffffffffffffffffffffffffffffffff1673ffffffffffffffffffffffffffffffffffffffff168152602001908152602001600020549050919050565b600360009054906101000a900460ff1681565b600180546104d590610bc3565b80601f016020809104026020016040519081016040528092919081815260200182805461050190610bc3565b801561054e5780601f106105235761010080835404028352916020019161054e565b820191906000526020600020905b81548152906001019060200180831161053157829003601f168201915b505050505081565b80600460008573ffffffffffffffffffffffffffffffffffffffff1673ffffffffffffffffffffffffffffffffffffffff1681526020019081526020016000205410156105a257600080fd5b80600560008573ffffffffffffffffffffffffffffffffffffffff1673ffffffffffffffffffffffffffffffffffffffff16815260200190815260200160002060003373ffffffffffffffffffffffffffffffffffffffff1673ffffffffffffffffffffffffffffffffffffffff16815260200190815260200160002054101561062b57600080fd5b80600460008573ffffffffffffffffffffffffffffffffffffffff1673ffffffffffffffffffffffffffffffffffffffff168152602001908152602001600020600082825461067a9190610c24565b9250508190555080600560008573ffffffffffffffffffffffffffffffffffffffff1673ffffffffffffffffffffffffffffffffffffffff16815260200190815260200160002060003373ffffffffffffffffffffffffffffffffffffffff1673ffffffffffffffffffffffffffffffffffffffff168152602001908152602001600020600082825461070d9190610c24565b9250508190555080600460008473ffffffffffffffffffffffffffffffffffffffff1673ffffffffffffffffffffffffffffffffffffffff16815260200190815260200160002060008282546107639190610c58565b925050819055508173ffffffffffffffffffffffffffffffffffffffff168373ffffffffffffffffffffffffffffffffffffffff167fcc5132f30f9d53fd784309407d47ac5de8b37977eb58ec9dc663a624f3fe7293836040516107c791906109b3565b60405180910390a3505050565b80600560003373ffffffffffffffffffffffffffffffffffffffff1673ffffffffffffffffffffffffffffffffffffffff16815260200190815260200160002060008473ffffffffffffffffffffffffffffffffffffffff1673ffffffffffffffffffffffffffffffffffffffff168152602001908152602001600020819055505050565b6000600560008373ffffffffffffffffffffffffffffffffffffffff1673ffffffffffffffffffffffffffffffffffffffff16815260200190815260200160002060003373ffffffffffffffffffffffffffffffffffffffff1673ffffffffffffffffffffffffffffffffffffffff168152602001908152602001600020549050919050565b600081519050919050565b600082825260208201905092915050565b60005b838110156109195780820151818401526020810190506108fe565b83811115610928576000848401525b50505050565b6000601f19601f8301169050919050565b600061094a826108df565b61095481856108ea565b93506109648185602086016108fb565b61096d8161092e565b840191505092915050565b60006020820190508181036000830152610992818461093f565b905092915050565b6000819050919050565b6109ad8161099a565b82525050565b60006020820190506109c860008301846109a4565b92915050565b600080fd5b600073ffffffffffffffffffffffffffffffffffffffff82169050919050565b60006109fe826109d3565b9050919050565b610a0e816109f3565b8114610a1957600080fd5b50565b600081359050610a2b81610a05565b92915050565b600060208284031215610a4757610a466109ce565b5b6000610a5584828501610a1c565b91505092915050565b60008060408385031215610a7557610a746109ce565b5b6000610a8385828601610a1c565b9250506020610a9485828601610a1c565b9150509250929050565b610aa78161099a565b8114610ab257600080fd5b50565b600081359050610ac481610a9e565b92915050565b60008060408385031215610ae157610ae06109ce565b5b6000610aef85828601610a1c565b9250506020610b0085828601610ab5565b9150509250929050565b600060ff82169050919050565b610b2081610b0a565b82525050565b6000602082019050610b3b6000830184610b17565b92915050565b600080600060608486031215610b5a57610b596109ce565b5b6000610b6886828701610a1c565b9350506020610b7986828701610a1c565b9250506040610b8a86828701610ab5565b9150509250925092565b7f4e487b7100000000000000000000000000000000000000000000000000000000600052602260045260246000fd5b60006002820490506001821680610bdb57607f821691505b60208210811415610bef57610bee610b94565b5b50919050565b7f4e487b7100000000000000000000000000000000000000000000000000000000600052601160045260246000fd5b6000610c2f8261099a565b9150610c3a8361099a565b925082821015610c4d57610c4c610bf5565b5b828203905092915050565b6000610c638261099a565b9150610c6e8361099a565b9250827fffffffffffffffffffffffffffffffffffffffffffffffffffffffffffffffff03821115610ca357610ca2610bf5565b5b82820190509291505056fea2646970667358221220c9ac6289994862e45e40ca5b209a40aab40ac002cfb800c508ef8786217fa4f064736f6c634300080c0033",
  "immutableReferences": {},
  "source": "pragma solidity ^0.8.0;\r\n\r\ncontract Tether{\r\n\r\nstring public name='Tether';\r\nstring public symbol='USDT';\r\nuint256 public totalSupply=1000000000000000000;\r\nuint8 public decimal=18;\r\n\r\nmapping(address=>uint256) public balances;\r\n// allowances\r\nmapping(address=>mapping(address=>uint256)) public allowances;\r\nevent TransferEVENT(address indexed from, address indexed to, uint256 value);\r\nconstructor() {\r\n    balances[msg.sender]=totalSupply;\r\n}\r\nfunction Transfer(address _to,uint256 value) public {\r\n    require(balances[msg.sender]>=value);\r\n    balances[msg.sender]-=value;\r\n    balances[_to]+=value;\r\n    emit TransferEVENT(msg.sender,_to,value);\r\n}\r\nfunction allowance(address _spender,uint256 _value) public{\r\nallowances[msg.sender][_spender]=_value;\r\n}\r\nfunction getAllowance(address _spender) public view returns(uint256){\r\nreturn allowances[_spender][msg.sender];\r\n}\r\nfunction TransferFrom(address _from,address _to,uint256 value) public {\r\n    require(balances[_from]>=value);\r\n    require(allowances[_from][msg.sender]>=value);\r\n\r\n    balances[_from]-=value;\r\n    allowances[_from][msg.sender]-=value;\r\n    balances[_to]+=value;\r\n    emit TransferEVENT(_from,_to,value);\r\n}\r\nfunction balanceOf(address _owner) public view returns(uint256){\r\n    return balances[_owner];\r\n}\r\n}",
  "sourcePath": "E:\\Learn\\Block-chain with solidity\\FirstSmartContract\\defi-staking-app-starter\\defi-staking-app-starter\\src\\contrasts\\Tether.sol",
  "compiler": {
    "name": "solc",
    "version": "0.8.12+commit.f00d7308.Emscripten.clang"
  },
  "schemaVersion": "3.4.4",
  "updatedAt": "2022-02-28T19:24:29.528Z",
  "devdoc": {
    "kind": "dev",
    "methods": {},
    "version": 1
  },
  "userdoc": {
    "kind": "user",
    "methods": {},
    "version": 1
  }
}