{
  "contractName": "Token",
  "abi": [
    {
      "inputs": [],
      "stateMutability": "nonpayable",
      "type": "constructor"
    },
    {
      "anonymous": false,
      "inputs": [
        {
          "indexed": true,
          "internalType": "address",
          "name": "from",
          "type": "address"
        },
        {
          "indexed": true,
          "internalType": "address",
          "name": "to",
          "type": "address"
        },
        {
          "indexed": false,
          "internalType": "uint256",
          "name": "value",
          "type": "uint256"
        }
      ],
      "name": "TransferEVENT",
      "type": "event"
    },
    {
      "inputs": [
        {
          "internalType": "address",
          "name": "",
          "type": "address"
        }
      ],
      "name": "balances",
      "outputs": [
        {
          "internalType": "uint256",
          "name": "",
          "type": "uint256"
        }
      ],
      "stateMutability": "view",
      "type": "function"
    },
    {
      "inputs": [],
      "name": "decimal",
      "outputs": [
        {
          "internalType": "uint8",
          "name": "",
          "type": "uint8"
        }
      ],
      "stateMutability": "view",
      "type": "function"
    },
    {
      "inputs": [],
      "name": "name",
      "outputs": [
        {
          "internalType": "string",
          "name": "",
          "type": "string"
        }
      ],
      "stateMutability": "view",
      "type": "function"
    },
    {
      "inputs": [],
      "name": "symbol",
      "outputs": [
        {
          "internalType": "string",
          "name": "",
          "type": "string"
        }
      ],
      "stateMutability": "view",
      "type": "function"
    },
    {
      "inputs": [],
      "name": "totalSupply",
      "outputs": [
        {
          "internalType": "uint256",
          "name": "",
          "type": "uint256"
        }
      ],
      "stateMutability": "view",
      "type": "function"
    },
    {
      "inputs": [
        {
          "internalType": "address",
          "name": "_to",
          "type": "address"
        },
        {
          "internalType": "uint256",
          "name": "value",
          "type": "uint256"
        }
      ],
      "name": "Transfer",
      "outputs": [],
      "stateMutability": "nonpayable",
      "type": "function"
    },
    {
      "inputs": [
        {
          "internalType": "address",
          "name": "_from",
          "type": "address"
        },
        {
          "internalType": "address",
          "name": "_to",
          "type": "address"
        },
        {
          "internalType": "uint256",
          "name": "value",
          "type": "uint256"
        }
      ],
      "name": "TransferFrom",
      "outputs": [],
      "stateMutability": "nonpayable",
      "type": "function"
    },
    {
      "inputs": [
        {
          "internalType": "address",
          "name": "_owner",
          "type": "address"
        }
      ],
      "name": "balanceOf",
      "outputs": [
        {
          "internalType": "uint256",
          "name": "",
          "type": "uint256"
        }
      ],
      "stateMutability": "view",
      "type": "function"
    }
  ],
  "bytecode": "0x60806040526040518060400160405280600581526020017f546f6b656e0000000000000000000000000000000000000000000000000000008152506000908051906020019061004f92919061011c565b506040518060400160405280600481526020017f55534454000000000000000000000000000000000000000000000000000000008152506001908051906020019061009b92919061011c565b50670de0b6b3a76400006002556012600360006101000a81548160ff021916908360ff1602179055503480156100d057600080fd5b50600254600460003373ffffffffffffffffffffffffffffffffffffffff1673ffffffffffffffffffffffffffffffffffffffff16815260200190815260200160002081905550610220565b828054610128906101ee565b90600052602060002090601f01602090048101928261014a5760008555610191565b82601f1061016357805160ff1916838001178555610191565b82800160010185558215610191579182015b82811115610190578251825591602001919060010190610175565b5b50905061019e91906101a2565b5090565b5b808211156101bb5760008160009055506001016101a3565b5090565b7f4e487b7100000000000000000000000000000000000000000000000000000000600052602260045260246000fd5b6000600282049050600182168061020657607f821691505b6020821081141561021a576102196101bf565b5b50919050565b6109bb8061022f6000396000f3fe608060405234801561001057600080fd5b50600436106100885760003560e01c806370a082311161005b57806370a082311461011557806376809ce31461014557806395d89b4114610163578063c0d84ce51461018157610088565b806306fdde031461008d57806318160ddd146100ab57806327e235e3146100c957806369ca02dd146100f9575b600080fd5b61009561019d565b6040516100a2919061068f565b60405180910390f35b6100b361022b565b6040516100c091906106ca565b60405180910390f35b6100e360048036038101906100de9190610748565b610231565b6040516100f091906106ca565b60405180910390f35b610113600480360381019061010e91906107a1565b610249565b005b61012f600480360381019061012a9190610748565b6103aa565b60405161013c91906106ca565b60405180910390f35b61014d6103f3565b60405161015a91906107fd565b60405180910390f35b61016b610406565b604051610178919061068f565b60405180910390f35b61019b60048036038101906101969190610818565b610494565b005b600080546101aa9061089a565b80601f01602080910402602001604051908101604052809291908181526020018280546101d69061089a565b80156102235780601f106101f857610100808354040283529160200191610223565b820191906000526020600020905b81548152906001019060200180831161020657829003601f168201915b505050505081565b60025481565b60046020528060005260406000206000915090505481565b80600460003373ffffffffffffffffffffffffffffffffffffffff1673ffffffffffffffffffffffffffffffffffffffff16815260200190815260200160002054101561029557600080fd5b80600460003373ffffffffffffffffffffffffffffffffffffffff1673ffffffffffffffffffffffffffffffffffffffff16815260200190815260200160002060008282546102e491906108fb565b9250508190555080600460008473ffffffffffffffffffffffffffffffffffffffff1673ffffffffffffffffffffffffffffffffffffffff168152602001908152602001600020600082825461033a919061092f565b925050819055508173ffffffffffffffffffffffffffffffffffffffff163373ffffffffffffffffffffffffffffffffffffffff167fcc5132f30f9d53fd784309407d47ac5de8b37977eb58ec9dc663a624f3fe72938360405161039e91906106ca565b60405180910390a35050565b6000600460008373ffffffffffffffffffffffffffffffffffffffff1673ffffffffffffffffffffffffffffffffffffffff168152602001908152602001600020549050919050565b600360009054906101000a900460ff1681565b600180546104139061089a565b80601f016020809104026020016040519081016040528092919081815260200182805461043f9061089a565b801561048c5780601f106104615761010080835404028352916020019161048c565b820191906000526020600020905b81548152906001019060200180831161046f57829003601f168201915b505050505081565b80600460008573ffffffffffffffffffffffffffffffffffffffff1673ffffffffffffffffffffffffffffffffffffffff1681526020019081526020016000205410156104e057600080fd5b80600460008573ffffffffffffffffffffffffffffffffffffffff1673ffffffffffffffffffffffffffffffffffffffff168152602001908152602001600020600082825461052f91906108fb565b9250508190555080600460008473ffffffffffffffffffffffffffffffffffffffff1673ffffffffffffffffffffffffffffffffffffffff1681526020019081526020016000206000828254610585919061092f565b925050819055508173ffffffffffffffffffffffffffffffffffffffff168373ffffffffffffffffffffffffffffffffffffffff167fcc5132f30f9d53fd784309407d47ac5de8b37977eb58ec9dc663a624f3fe7293836040516105e991906106ca565b60405180910390a3505050565b600081519050919050565b600082825260208201905092915050565b60005b83811015610630578082015181840152602081019050610615565b8381111561063f576000848401525b50505050565b6000601f19601f8301169050919050565b6000610661826105f6565b61066b8185610601565b935061067b818560208601610612565b61068481610645565b840191505092915050565b600060208201905081810360008301526106a98184610656565b905092915050565b6000819050919050565b6106c4816106b1565b82525050565b60006020820190506106df60008301846106bb565b92915050565b600080fd5b600073ffffffffffffffffffffffffffffffffffffffff82169050919050565b6000610715826106ea565b9050919050565b6107258161070a565b811461073057600080fd5b50565b6000813590506107428161071c565b92915050565b60006020828403121561075e5761075d6106e5565b5b600061076c84828501610733565b91505092915050565b61077e816106b1565b811461078957600080fd5b50565b60008135905061079b81610775565b92915050565b600080604083850312156107b8576107b76106e5565b5b60006107c685828601610733565b92505060206107d78582860161078c565b9150509250929050565b600060ff82169050919050565b6107f7816107e1565b82525050565b600060208201905061081260008301846107ee565b92915050565b600080600060608486031215610831576108306106e5565b5b600061083f86828701610733565b935050602061085086828701610733565b92505060406108618682870161078c565b9150509250925092565b7f4e487b7100000000000000000000000000000000000000000000000000000000600052602260045260246000fd5b600060028204905060018216806108b257607f821691505b602082108114156108c6576108c561086b565b5b50919050565b7f4e487b7100000000000000000000000000000000000000000000000000000000600052601160045260246000fd5b6000610906826106b1565b9150610911836106b1565b925082821015610924576109236108cc565b5b828203905092915050565b600061093a826106b1565b9150610945836106b1565b9250827fffffffffffffffffffffffffffffffffffffffffffffffffffffffffffffffff0382111561097a576109796108cc565b5b82820190509291505056fea2646970667358221220263dc459b3d2418c38f87a1e65d98ebef2ca95846a9d07b885cab0a703b666b964736f6c634300080c0033",
  "immutableReferences": {},
  "source": "pragma solidity ^0.8.0;\r\n\r\ncontract Token{\r\n\r\nstring public name='Token';\r\nstring public symbol='USDT';\r\nuint256 public totalSupply=1000000000000000000;\r\nuint8 public decimal=18;\r\n\r\nmapping(address=>uint256) public balances;\r\nevent TransferEVENT(address indexed from, address indexed to, uint256 value);\r\nconstructor() {\r\n    balances[msg.sender]=totalSupply;\r\n}\r\nfunction Transfer(address _to,uint256 value) public {\r\n    require(balances[msg.sender]>=value);\r\n    balances[msg.sender]-=value;\r\n    balances[_to]+=value;\r\n    emit TransferEVENT(msg.sender,_to,value);\r\n}\r\nfunction TransferFrom(address _from,address _to,uint256 value) public {\r\n    require(balances[_from]>=value);\r\n    balances[_from]-=value;\r\n    balances[_to]+=value;\r\n    emit TransferEVENT(_from,_to,value);\r\n}\r\nfunction balanceOf(address _owner) public view returns(uint256){\r\n    return balances[_owner];\r\n}\r\n}",
  "sourcePath": "E:\\Learn\\Block-chain with solidity\\FirstSmartContract\\defi-staking-app-starter\\defi-staking-app-starter\\src\\contrasts\\token.sol",
  "compiler": {
    "name": "solc",
    "version": "0.8.12+commit.f00d7308.Emscripten.clang"
  },
  "schemaVersion": "3.4.4",
  "updatedAt": "2022-02-28T19:16:10.449Z",
  "devdoc": {
    "kind": "dev",
    "methods": {},
    "version": 1
  },
  "userdoc": {
    "kind": "user",
    "methods": {},
    "version": 1
  }
}