{
  "contractName": "Token",
  "abi": [
    {
      "inputs": [],
      "stateMutability": "nonpayable",
      "type": "constructor"
    },
    {
      "inputs": [
        {
          "internalType": "string",
          "name": "messgae",
          "type": "string"
        }
      ],
      "name": "ownerError",
      "type": "error"
    },
    {
      "anonymous": false,
      "inputs": [
        {
          "indexed": true,
          "internalType": "address",
          "name": "from",
          "type": "address"
        },
        {
          "indexed": true,
          "internalType": "address",
          "name": "to",
          "type": "address"
        },
        {
          "indexed": false,
          "internalType": "uint256",
          "name": "value",
          "type": "uint256"
        }
      ],
      "name": "Transfer",
      "type": "event"
    },
    {
      "inputs": [
        {
          "internalType": "address",
          "name": "",
          "type": "address"
        },
        {
          "internalType": "address",
          "name": "",
          "type": "address"
        }
      ],
      "name": "allowence",
      "outputs": [
        {
          "internalType": "uint256",
          "name": "",
          "type": "uint256"
        }
      ],
      "stateMutability": "view",
      "type": "function",
      "constant": true
    },
    {
      "inputs": [
        {
          "internalType": "address",
          "name": "",
          "type": "address"
        }
      ],
      "name": "balances",
      "outputs": [
        {
          "internalType": "uint256",
          "name": "",
          "type": "uint256"
        }
      ],
      "stateMutability": "view",
      "type": "function",
      "constant": true
    },
    {
      "inputs": [],
      "name": "name",
      "outputs": [
        {
          "internalType": "string",
          "name": "",
          "type": "string"
        }
      ],
      "stateMutability": "view",
      "type": "function",
      "constant": true
    },
    {
      "inputs": [],
      "name": "owner",
      "outputs": [
        {
          "internalType": "address",
          "name": "",
          "type": "address"
        }
      ],
      "stateMutability": "view",
      "type": "function",
      "constant": true
    },
    {
      "inputs": [],
      "name": "symbol",
      "outputs": [
        {
          "internalType": "string",
          "name": "",
          "type": "string"
        }
      ],
      "stateMutability": "view",
      "type": "function",
      "constant": true
    },
    {
      "inputs": [],
      "name": "totalSupply",
      "outputs": [
        {
          "internalType": "uint256",
          "name": "",
          "type": "uint256"
        }
      ],
      "stateMutability": "view",
      "type": "function",
      "constant": true
    },
    {
      "inputs": [
        {
          "internalType": "address",
          "name": "_to",
          "type": "address"
        },
        {
          "internalType": "uint256",
          "name": "_value",
          "type": "uint256"
        }
      ],
      "name": "TransferMoney",
      "outputs": [],
      "stateMutability": "nonpayable",
      "type": "function"
    },
    {
      "inputs": [
        {
          "internalType": "address",
          "name": "_from",
          "type": "address"
        },
        {
          "internalType": "address",
          "name": "_to",
          "type": "address"
        },
        {
          "internalType": "uint256",
          "name": "_value",
          "type": "uint256"
        }
      ],
      "name": "TransferFrom",
      "outputs": [],
      "stateMutability": "nonpayable",
      "type": "function"
    },
    {
      "inputs": [
        {
          "internalType": "address",
          "name": "_to",
          "type": "address"
        },
        {
          "internalType": "uint256",
          "name": "_value",
          "type": "uint256"
        }
      ],
      "name": "giveAllowence",
      "outputs": [],
      "stateMutability": "nonpayable",
      "type": "function"
    }
  ],
  "bytecode": "0x6080604052670de0b6b3a76400006001556040518060400160405280600481526020017f5445544800000000000000000000000000000000000000000000000000000000815250600290805190602001906200005d92919062000146565b506040518060400160405280600681526020017f546574686572000000000000000000000000000000000000000000000000000081525060039080519060200190620000ab92919062000146565b50348015620000b957600080fd5b50336000806101000a81548173ffffffffffffffffffffffffffffffffffffffff021916908373ffffffffffffffffffffffffffffffffffffffff160217905550600154600460003373ffffffffffffffffffffffffffffffffffffffff1673ffffffffffffffffffffffffffffffffffffffff168152602001908152602001600020819055506200025b565b828054620001549062000225565b90600052602060002090601f016020900481019282620001785760008555620001c4565b82601f106200019357805160ff1916838001178555620001c4565b82800160010185558215620001c4579182015b82811115620001c3578251825591602001919060010190620001a6565b5b509050620001d39190620001d7565b5090565b5b80821115620001f2576000816000905550600101620001d8565b5090565b7f4e487b7100000000000000000000000000000000000000000000000000000000600052602260045260246000fd5b600060028204905060018216806200023e57607f821691505b60208210811415620002555762000254620001f6565b5b50919050565b610c17806200026b6000396000f3fe608060405234801561001057600080fd5b50600436106100935760003560e01c80638da5cb5b116100665780638da5cb5b146101205780638e07a0d61461013e57806395d89b411461015a578063a77a823014610178578063c0d84ce5146101a857610093565b806306fdde031461009857806318160ddd146100b657806327e235e3146100d45780634a3d9eaf14610104575b600080fd5b6100a06101c4565b6040516100ad91906108b8565b60405180910390f35b6100be610252565b6040516100cb91906108f3565b60405180910390f35b6100ee60048036038101906100e99190610971565b610258565b6040516100fb91906108f3565b60405180910390f35b61011e600480360381019061011991906109ca565b610270565b005b61012861036b565b6040516101359190610a19565b60405180910390f35b610158600480360381019061015391906109ca565b61038f565b005b6101626104f0565b60405161016f91906108b8565b60405180910390f35b610192600480360381019061018d9190610a34565b61057e565b60405161019f91906108f3565b60405180910390f35b6101c260048036038101906101bd9190610a74565b6105a3565b005b600380546101d190610af6565b80601f01602080910402602001604051908101604052809291908181526020018280546101fd90610af6565b801561024a5780601f1061021f5761010080835404028352916020019161024a565b820191906000526020600020905b81548152906001019060200180831161022d57829003601f168201915b505050505081565b60015481565b60046020528060005260406000206000915090505481565b60008054906101000a900473ffffffffffffffffffffffffffffffffffffffff1673ffffffffffffffffffffffffffffffffffffffff163373ffffffffffffffffffffffffffffffffffffffff1614156103675780600560008060009054906101000a900473ffffffffffffffffffffffffffffffffffffffff1673ffffffffffffffffffffffffffffffffffffffff1673ffffffffffffffffffffffffffffffffffffffff16815260200190815260200160002060008473ffffffffffffffffffffffffffffffffffffffff1673ffffffffffffffffffffffffffffffffffffffff168152602001908152602001600020819055505b5050565b60008054906101000a900473ffffffffffffffffffffffffffffffffffffffff1681565b80600460003373ffffffffffffffffffffffffffffffffffffffff1673ffffffffffffffffffffffffffffffffffffffff1681526020019081526020016000205410156103db57600080fd5b80600460003373ffffffffffffffffffffffffffffffffffffffff1673ffffffffffffffffffffffffffffffffffffffff168152602001908152602001600020600082825461042a9190610b57565b9250508190555080600460008473ffffffffffffffffffffffffffffffffffffffff1673ffffffffffffffffffffffffffffffffffffffff16815260200190815260200160002060008282546104809190610b8b565b925050819055508173ffffffffffffffffffffffffffffffffffffffff163373ffffffffffffffffffffffffffffffffffffffff167fddf252ad1be2c89b69c2b068fc378daa952ba7f163c4a11628f55a4df523b3ef836040516104e491906108f3565b60405180910390a35050565b600280546104fd90610af6565b80601f016020809104026020016040519081016040528092919081815260200182805461052990610af6565b80156105765780601f1061054b57610100808354040283529160200191610576565b820191906000526020600020905b81548152906001019060200180831161055957829003601f168201915b505050505081565b6005602052816000526040600020602052806000526040600020600091509150505481565b80600560003373ffffffffffffffffffffffffffffffffffffffff1673ffffffffffffffffffffffffffffffffffffffff16815260200190815260200160002060008573ffffffffffffffffffffffffffffffffffffffff1673ffffffffffffffffffffffffffffffffffffffff168152602001908152602001600020541161062b57600080fd5b80600460008573ffffffffffffffffffffffffffffffffffffffff1673ffffffffffffffffffffffffffffffffffffffff168152602001908152602001600020541161067657600080fd5b80600460008573ffffffffffffffffffffffffffffffffffffffff1673ffffffffffffffffffffffffffffffffffffffff16815260200190815260200160002060008282546106c59190610b57565b9250508190555080600560003373ffffffffffffffffffffffffffffffffffffffff1673ffffffffffffffffffffffffffffffffffffffff16815260200190815260200160002060008573ffffffffffffffffffffffffffffffffffffffff1673ffffffffffffffffffffffffffffffffffffffff16815260200190815260200160002060008282546107589190610b57565b9250508190555080600460008473ffffffffffffffffffffffffffffffffffffffff1673ffffffffffffffffffffffffffffffffffffffff16815260200190815260200160002060008282546107ae9190610b8b565b925050819055508173ffffffffffffffffffffffffffffffffffffffff168373ffffffffffffffffffffffffffffffffffffffff167fddf252ad1be2c89b69c2b068fc378daa952ba7f163c4a11628f55a4df523b3ef8360405161081291906108f3565b60405180910390a3505050565b600081519050919050565b600082825260208201905092915050565b60005b8381101561085957808201518184015260208101905061083e565b83811115610868576000848401525b50505050565b6000601f19601f8301169050919050565b600061088a8261081f565b610894818561082a565b93506108a481856020860161083b565b6108ad8161086e565b840191505092915050565b600060208201905081810360008301526108d2818461087f565b905092915050565b6000819050919050565b6108ed816108da565b82525050565b600060208201905061090860008301846108e4565b92915050565b600080fd5b600073ffffffffffffffffffffffffffffffffffffffff82169050919050565b600061093e82610913565b9050919050565b61094e81610933565b811461095957600080fd5b50565b60008135905061096b81610945565b92915050565b6000602082840312156109875761098661090e565b5b60006109958482850161095c565b91505092915050565b6109a7816108da565b81146109b257600080fd5b50565b6000813590506109c48161099e565b92915050565b600080604083850312156109e1576109e061090e565b5b60006109ef8582860161095c565b9250506020610a00858286016109b5565b9150509250929050565b610a1381610933565b82525050565b6000602082019050610a2e6000830184610a0a565b92915050565b60008060408385031215610a4b57610a4a61090e565b5b6000610a598582860161095c565b9250506020610a6a8582860161095c565b9150509250929050565b600080600060608486031215610a8d57610a8c61090e565b5b6000610a9b8682870161095c565b9350506020610aac8682870161095c565b9250506040610abd868287016109b5565b9150509250925092565b7f4e487b7100000000000000000000000000000000000000000000000000000000600052602260045260246000fd5b60006002820490506001821680610b0e57607f821691505b60208210811415610b2257610b21610ac7565b5b50919050565b7f4e487b7100000000000000000000000000000000000000000000000000000000600052601160045260246000fd5b6000610b62826108da565b9150610b6d836108da565b925082821015610b8057610b7f610b28565b5b828203905092915050565b6000610b96826108da565b9150610ba1836108da565b9250827fffffffffffffffffffffffffffffffffffffffffffffffffffffffffffffffff03821115610bd657610bd5610b28565b5b82820190509291505056fea2646970667358221220c683537d7776401eab63bdf6b59c8e53e1477c4ca73ea42c07c05c809552e97164736f6c634300080c0033",
  "immutableReferences": {},
  "source": "pragma solidity ^0.8.0;\r\n\r\ncontract Token{\r\n    address public owner;\r\n    uint public totalSupply=1000000000000000000;\r\n    string public symbol=\"TETH\";\r\n    string public name=\"Tether\";\r\n\r\n    mapping(address=>uint) public balances;\r\n    mapping(address =>mapping(address=>uint)) public allowence;\r\n\r\nerror ownerError(string messgae);\r\nevent Transfer(address indexed from,address indexed to,uint value);\r\n\r\nconstructor(){\r\n    owner=msg.sender;\r\n    balances[msg.sender]=totalSupply;\r\n}\r\n    function TransferMoney(address _to,uint _value) public{\r\n        require(balances[msg.sender]>=_value);\r\n        balances[msg.sender]-=_value;\r\n        balances[_to]+=_value;\r\n        emit Transfer(msg.sender,_to,_value);\r\n        \r\n       \r\n    }\r\n    function TransferFrom(address _from,address _to,uint _value)public{\r\n        require(allowence[msg.sender][_from]>_value);\r\nrequire(balances[_from]>_value);\r\n\r\n        balances[_from]-=_value;\r\n        allowence[msg.sender][_from]-=_value;\r\n        balances[_to]+=_value;\r\n        emit Transfer(_from,_to,_value);\r\n\r\n    }\r\n    function giveAllowence(address _to,uint _value)public {\r\n        if(msg.sender==owner){\r\n        allowence[owner][_to]=_value;\r\n        }\r\n    }\r\n   \r\n}\r\n",
  "sourcePath": "E:\\Learn\\Block-chain with solidity\\FirstSmartContract\\defi-staking-app-starter\\defi-staking-app-starter\\src\\contrasts\\Token.sol",
  "compiler": {
    "name": "solc",
    "version": "0.8.12+commit.f00d7308.Emscripten.clang"
  },
  "schemaVersion": "3.4.4",
  "updatedAt": "2022-03-04T19:35:09.636Z",
  "networkType": "ethereum",
  "devdoc": {
    "kind": "dev",
    "methods": {},
    "version": 1
  },
  "userdoc": {
    "kind": "user",
    "methods": {},
    "version": 1
  }
}